:100000000060002085000000ED000000EF0000000F
:10001000F1000000F3000000F50000000000000007
:10002000000000000000000000000000F7000000D9
:10003000F700000000000000F9000000F56E00006D
:10004000B567000000000000B16B00000000000078
:10005000D5630000E5630000F5630000056400005F
:10006000A56E0000D96E0000000000000000000036
:100070008562000000000000416700005167000039
:10008000FFFF00001049114A114B9B1A40F30580F5
:10009000043BC858D0503FF7FBAF0E480E490F4AFB
:1000A000914200F0048041F8040BFFF7F9BF0948C2
:1000B0000B490C4A914200F0048041F8040BFFF711
:1000C000F9BF09480047000000FC000000000020C4
:1000D000980100200000000098010020804D0020C1
:1000E000005000200060002015010000FEE7FEE740
:1000F000FEE7FEE7FEE7FEE7FEE7FEE7FEE7FEE7D8
:10010000FEE7FEE7FEE7FEE7FEE7FEE7FEE7FEE7C7
:10011000FEE700BF2DE9F04F89B003F0E3FB03F0E9
:10012000EFFB0AF0EDFA06F005FA0023AD4AC5F23E
:10013000020302E01578002D66D1998801F4005081
:1001400084B2002CF6D00021C5F20201888800F4A8
:100150000054A2B2002AF9D10023C025C5F2100331
:10016000DFF89C9283F83C5099F80000DFF894B2D5
:10017000DFF8948201249C4D9C4E9D4F002800F096
:100180008280002C40F09B809BF80000B8B140F2C8
:100190002521C2F200010A78002A00F0378140F2DE
:1001A000BF22C2F2000240F27D2014780023C2F286
:1001B00000000370002C00F049810D222A7040F2EB
:1001C000A504C2F20004237858B2431C00F0088151
:1001D0003A78FF212A70397040F21424C2F20004E8
:1001E000237850B240F2B812C2F200021370102805
:1001F0002ED8DFE800F00D2D2D2D2D2D2D2D2D2DA0
:100200002D2D8581818181007A4F01263E709AE7EC
:1002100003F0DAF9002002F04BFE40F22522C2F290
:1002200000021478002C00F0148142F2FC44C2F267
:10023000000494F8AC10002940F0308140F2A8325C
:10024000C2F200020D2312782B7050B201F09EF919
:100250001620D8F80040A04740F2CA20C2F20000A1
:10026000017851B140F22423C2F200031A78002A27
:1002700040F0E3803178012924D0002499F800006F
:1002800000287FF47EAF40F2EB21C2F2000108703B
:1002900003F036FB0C222A7003F040FB01F094FBC4
:1002A00001F01EFE002C40F0E48003F085FB40F2DC
:1002B000EB230124C2F2000389F800401C7003F014
:1002C00039FA61E73378012BFCD0484A1478022CC4
:1002D000D3D1012001F074FD40F2AC30C2F2000035
:1002E000C27C836C42F00104C47431209847002022
:1002F00089F800000024C1E700F002FA2870A7E79F
:1003000040F2B4140020C2F2000440F2B821206090
:10031000C2F20001384C40F2BC130860C2F2000384
:1003200040F2CA2240F29431C2F20001C2F200024D
:1003300018604FF0010AA31C82F800A0087408801E
:1003400020806080A080E0802081188108F0FCFF80
:1003500042F2FC40C2F2000090F86D20511E3AB308
:100360005046069102F0A4FD069C04F00103079399
:1003700009F072F80698441ED0B1079A3AB1504677
:10038000013C02F095FD09F067F8631C10D0A2460D
:1003900001200AF1FF3402F08BFD09F05DF8012025
:1003A00002F086FDAAF1020A09F056F8002CEFD1FE
:1003B00009F004F840F2BF21C2F200010B7813B13A
:1003C0000E4A002010701D20D8F80040A04740F2CF
:1003D000A801FF23C2F2000100200B70287037E74C
:1003E0002A78F9E6B5020020CC120020090200208C
:1003F000A50000207C02002096030020BF02002000
:10040000AF0100207D0200203C4600200024C5F200
:100410000204A38803F4005081B20029F9D000221D
:10042000C5F20202948804F4005398B20028F9D16E
:100430000C2129708BF80000C1E6AB4C00F096FE51
:10044000207800287FF416AF002417E70E212970CA
:10045000B5E640F29B11C2F200010B7863B10C705B
:1004600001F05EF940F2A830C2F2000004702246AA
:10047000EBE606F08FF818E70520D8F80020069381
:10048000904709F03FFB069C58B940F2A833012180
:10049000C2F200038BF800101A78D6E606F09AFC38
:1004A000CCE644F23C61C2F200010B6806200694DF
:1004B000984702F08BFC00F063FF40F2B810C2F2E4
:1004C00000000278069B002A40F0F18040F2F061C3
:1004D000C2F20001002403200C70D8F800209047DD
:1004E00040F2F060C2F20000037803B340F2C010A3
:1004F00040F2B812C2F20000C2F20002036840F2F9
:10050000CC111078C2F200010B80002840F0E4808A
:10051000022B00F38F8040F2C01240F2A830C2F2EA
:1005200000025C1CC2F20000146002788DE640F20A
:10053000C01444F23C61C2F20001C2F200040A6835
:1005400023600720904705F047FD44F23C63C2F268
:1005500000031C680920A04703F088F805F070FE2E
:1005600040F20820C2F20000017821B909F05EFED5
:10057000002800F0928005F06DFE03F0A3F840F231
:100580006072C2F2000213881CB2B4F5E16F66DA41
:10059000581C81B240F26072C2F200021180D8F899
:1005A00000300A2098470C20D8F80040A0470120CE
:1005B00003F05CFA44F23861C2F200010A680120DB
:1005C0009047D8F800300D20984703F045FA05F021
:1005D000B1F805F027FD1120D8F80040A0471420FD
:1005E000D8F80010884700F04BFF00286ED042F288
:1005F000FC40C2F2000090F8AC20002A3AD13B48FF
:100600003B494FF4A8720EF0C1FF40F21A23C2F228
:1006100000031C7854BB42F2FC41C2F2000191F885
:10062000AC0007F0EBFC40BB40F2A830C2F2000087
:1006300002780AE603F00AF840F2C01040F2DD0149
:1006400040F2A83300240C22C2F20000C2F20001E2
:10065000C2F200032A7004600C701A78F5E50B21D1
:100660000120002207F07CFB012193E7002007F026
:10067000C5FCD0E706F0AEFBC1E71E4A4FF61814E2
:100680001378C0F20004E15C480006F075FB40F20C
:10069000A830C2F200000278D7E502F0D7FF40F29E
:1006A000A8310C24C2F200012C700A78CDE5042098
:1006B0000F21512202248DE8170004930593012095
:1006C00019210D4A382307F049FAFFE640F2A83312
:1006D000C2F200031A78B8E520460121102207F083
:1006E000BDF9064B1B6813E7CA020020A8310020A1
:1006F000D82C0020FC24002054170020C00100202A
:1007000070B5A0F10D0386B0032B00F21281DFE873
:1007100013F0040020004500F800934E00253570CA
:1007200001F0CAF901238C20337005F0D1FF8F4E00
:100730000B24013C0BD0012002F0F6FD41F65830AD
:10074000357002F0D5FF0A2005F0C2FFF1E70E2454
:10075000F2E0874E08F0F8FD864D96F86D600024B3
:10076000A6420BD0012002F0DFFD08F075FE2A78CA
:1007700012B10A2005F0ACFF0134F1E77D490024F5
:100780000C7008F01BFE7C487C4B0178FF221A702D
:10079000002900F0D08004700F24CDE0002002F08A
:1007A000C3FD774804780CB11024A6E07549764D56
:1007B0000A680520904709F0A5F92B786BB1042051
:1007C0000F21512202238DE80F000494059401208B
:1007D00019216E4A382307F0C1F96D4D694800248C
:1007E00001682C70032088472A786A4BE2B166487A
:1007F0001968694A0378118023B12046012110222B
:1008000007F02CF9634C2168022903DC01312160D7
:100810000F2472E000202060604A614C614B207020
:10082000107018700E2468E05F4C1A602078002861
:1008300037D002F071FC514991F90020002A36D1DD
:10084000504C07202368984705F0C6FB2168092013
:10085000884702F00BFF05F0F3FC05F0FBFC02F00B
:1008600031FF22680A20904723680C209847012016
:1008700003F0FCF821680D2088474C4802680120ED
:100880009047012004F008FD03F0E6F804F052FF61
:1008900005F0C8FB23681120984724681E20A04754
:1008A00005E009F0C3FC0028C3D10E2425E040492F
:1008B000087800287FF478AF304A3E4C92F9003037
:1008C000012B08D13C4920880A782AB9C00080B29F
:1008D00006F092FA02E0608806F08EFA374B1C7838
:1008E0002CB137498A8802F0020083B213B100208C
:1008F00005F0ACFE06F0AEFA0F242D4802780AB9D6
:100900001AE010241E4D2D78CDB9042029462A4620
:1009100007F026FA642005F0DBFE01F0C1F8032899
:100920000DD0642005F0D4FE01F0BAF8032816D1EA
:1009300005E0044600E00F2460B206B070BD214817
:1009400000210170204A1A4B0D4811701970017076
:100950001E4A194B1E48117019700170ECE7144BB8
:100960000F241D70E8E700BFEB020020A201002069
:10097000FC240020A9000020BF020020A8000020C5
:10098000AE0100203C460020B80100205417002092
:10099000F0060020C0010020CC010020B0010020A2
:1009A000C9010020C80100200802002038460020AC
:1009B000B2010020B84600207E020020E90200209B
:1009C00000000250AF01002025020020B5020020E7
:1009D000170200202DE9F84F2F4B187808B101F0CD
:1009E000A5F92E4901222E4E2B4D2E4C0A70B378BC
:1009F0008BB929780029FAD1A38803F4005080B27A
:100A00000028F4D1A28802F480518BB2002BEED0E2
:100A100000F0F6FFEBE7224C204D00201E4AA070AC
:100A20002870117809B101F0C5F81B4D1E491F4C03
:100A30000F23581EC3B2FF2B2CD0192214204FF0C5
:100A4000302A03F101094FF04058013AD2B2FF2A8F
:100A5000EFD02E782EB100FB023731F81760B6B216
:100A600010E000FB0237DFF848C031F817B03AF861
:100A700017601CF80370B6B234F817701FFA8BFBBE
:100A8000F61B5E44571C4FF0180C0CFB079748F8F8
:100A90002760DAE7BDE8F88F250200201602002063
:100AA000344600200000025000200030403E00206C
:100AB00078F900002DE9F04FADF2FC5D002140F225
:100AC000EE2206A80EF06BFD00214FF4E0627448A0
:100AD0000EF065FD00214FF4E06272480EF05FFDFC
:100AE00000214FF4607270480EF059FD00214FF460
:100AF00060726E480EF053FD00214FF407726C488F
:100B00000EF04DFD4FF6FF7140F2EE22C2A80EF03E
:100B100046FD1822002168460EF041FD654B00227B
:100B2000D87B9A73012806D901210324D97383F84D
:100B3000504002F093FD604D5E4C2E7AE37A771EB2
:100B4000207BFA1AE57B111A69435C4F5C4E3D78B5
:100B5000317085B901233B7008F0F6FB94F86D60A5
:100B60002C46A64205D0FFF735FF013408F074FC8F
:100B7000F7E708F023FC4FF00009524C228890B2AE
:100B8000814545DAFFF726FFC2AFDFF844814E4EBC
:100B900007F52F77B5AD0F244FF0180B04F1FF3A8E
:100BA0009CB35146022008F099FC424B192193F85E
:100BB0000EC000B24B1E09B30BFB01424FF0405177
:100BC00051F8222091B241FA0CF256F823108918FC
:100BD00046F8231035F81310121A914237F8131003
:100BE000B8BF25F81320914258F82310C8BF27F842
:100BF00013208A1848F823201946DBE7A8F170086B
:100C0000323F703E323D5446C8E709F10109B4E76E
:100C1000C2A901F52F70DFF8B0E02C492C4F294D07
:100C2000B5AC002256000EEB060907EB060A294E6A
:100C3000192306EB0208284E06EB020C13F1FF33D2
:100C40001ED3B5F800B059F823601FFA8BFBB6FB32
:100C5000FBF628F8136034F813B030F81360C6EBD5
:100C60000B06FF2EA8BFFF26B5F800B0CE545AF8E9
:100C700023601FFA8BFBB6FBFBF62CF81360DDE755
:100C8000383A323C32381E3912F5527FCAD102F05E
:100C900037FE02F0E3FC7FB00DF5806DBDE8F08F0C
:100CA00040370020680700207C210020282E0020EB
:100CB0008C1D0020FC240020DC1A0020E80200200B
:100CC00077210020C0000020603D0020301F002060
:100CD000880D00208C240020383100202DE9F04FB1
:100CE000ADF66C2D002140F2EE2267A80EF057FC05
:100CF000002140F2DC520DF28C400EF050FC00213D
:100D000040F2771209A80EF04AFC00214FF4077256
:100D10007F480EF044FC7F4C00214FF460727E4807
:100D20000EF03DFC01260323002584F85030E673C5
:100D3000A57302F093FC7948067008F005FB94F85F
:100D40006D702C46A74205D0FFF744FE013408F031
:100D500083FBF7E708F032FBFFF73CFE0DF5C171AE
:100D600002910B460E224FF030241426182706FB62
:100D7000072534F81500D85517F1FF37F7D2013A97
:100D8000193B551CF2D1664E3120716C88471323F4
:100D9000F45C03F110076D4613F1FF337C55F7D275
:100DA0004FF000085F4EFFF715FE029835460E2201
:100DB00000211427B446182307FB03264FF03024E4
:100DC00034F8166010F803E0F4B2EC54A64518BFEE
:100DD000012113F1FF33EFD2013A1E3D1938541CA3
:100DE000E9D16446002959D0029EDFF82CC10DF5E7
:100DF0008B600E224C4D64230DF28C41571903FB7E
:100E0000021103970023F5182F7E5FB34FF01409EA
:100E100019F1FF3905D30DF1100A1AF809B0BB45D5
:100E2000F6D1039F4FF01C0E97F900A00F6E0EFB3A
:100E30000A9B00EB430ECDF804B00BF1FF3A97FB91
:100E4000F8FBBEF930703CF81AA0C7EB0B0EBEF1F0
:100E5000000FACBF0AEB0E070AF10007DDF804A093
:100E60002CF81A700F6E00EB430E97FBF8F7AEF8F4
:100E70003070E7183F7E013B2F7600250D66043960
:100E800013F1190FBFD1013A32381E3C193E511CE3
:100E9000B0D1B9F1130F31D04FF000080DF28C46EC
:100EA00008F1010806F5AF650E244FF040574FF0EA
:100EB000180A2146022008F011FB1649192291F860
:100EC0000EC0002304F1010E00B2043B13F1680FC1
:100ED0000FD00AFB02E657F82660E9181FFA86FBD6
:100EE0004BFA0CF6C0EB060B4E6E013A5E444E66B2
:100EF000EBE7013C643D631CDBD153E702F000FDEE
:100F00000DF51B7D0DF5006DBDE8F04F02F0A6BBA1
:100F10008C1D0020FC240020282E0020E802002048
:100F2000AC030020301F002078F900002DE9F04FBD
:100F3000ADF6542D002140F2EE2261A80DF2744B63
:100F40000EF02DFB0DF10C09002140F2DC52584649
:100F50000EF025FB002140F2771248460EF01FFBF1
:100F600000214FF407727B480EF019FB00214FF46B
:100F7000607279480EF013FB784B002101220320A8
:100F80009973DA7383F8500002F068FB744B75496B
:100F900014256C1EE5B2FF2D02D0485D5855F8E7C8
:100FA0006F4B31209A6C90476C4C6F490120087050
:100FB00008F0CAF994F86D500024A54205D0FFF757
:100FC00009FD013408F048FAF7E708F0F7F91924A9
:100FD000FFF700FD0F234FF0302014215D1EEBB210
:100FE000FF2B0ED004FB03F51922013AD2B2FF2ADF
:100FF000F4D001FB023630F81670AE1809F806700E
:10100000F3E74FF00008CDF80480FFF7E3FC4FF062
:1010100030250F2200211424013AD2B2FF2A1CD01D
:1010200019231E27574303FB02F6013BDBB2FF2BBC
:10103000F2D004FB032035F81000DFF818C1C0B26D
:1010400007EB030E0CF80E0006EB030E19F80EC0AA
:101050008445EAD001210191E7E7002941D00F2220
:101060000121501EC2B2FF2A34D019231E261C278C
:1010700006FB02FC03FB02F407FB02FE013BDBB2B2
:10108000FF2BEED0334E0CEB0307F55DE61819F895
:101090000600002D18BF002170B15BF826700EEB22
:1010A000030A97FBF8F061AF37F81660801B2A4EF1
:1010B00020EAE07726F81A70E0185BF8207009F84B
:1010C000005097FBF8F6002561AF27F810604BF849
:1010D0002050D3E7019B13B191BB884601E0DDF8B6
:1010E000048008F101080F241926013CE4B2FF2C0A
:1010F0008BD00220214608F0F1F9184F192397F8F8
:101100000EC006FB04F704F1010E00B25D1EEBB247
:10111000FF2BEAD018215A1C01FB02E24FF0405588
:1011200055F82210FA181FFA81FA4AFA0CF55BF802
:101130002210C0EB050A01EB0A054BF82250E5E747
:1011400002F0DEFB0DF5157D0DF5006DBDE8F04FED
:1011500002F084BA8C1D00207C210020FC24002099
:10116000AC03002088F90000E80200202DE9F04FD0
:10117000734BFF22734C87B01A7071487249734ADF
:1011800090F900300878002800F0D680107840B23E
:101190008342F7D06D496A4A0B7858B2137006281B
:1011A00000F2BD80DFE800F0041016A2A512AB002B
:1011B000674A6849684801230B6013700368182068
:1011C00098470022654803E0FFF774FC604801225D
:1011D0000270A4E0032604204FF4C871012584F8AE
:1011E00050600523207321830026B4275C484FF606
:1011F000FF714FF46072E57384F83060A772E37298
:101200000EF0CDF9574D4FF0405855F8182C55F8C1
:10121000107C55F8083C286822646764A364E06485
:1012200002F01CFA504800214FF4E0620EF0B7F9CA
:1012300002274FF01809FFF7CDFB94F80EC04B4A78
:101240000F234FF0AB0E03F1FF3AB3B11921481E43
:1012500081B109FB013158F821101FFA81FB4BFACB
:101260000CF191FBFEFB52F82010594442F820107B
:101270000146ECE7703A5346E5E7013FDBD119221E
:10128000711C91FBF2FE02FB1E1E3A46384FA94626
:10129000364D192305EB4205B91813F1FF3304D37A
:1012A000B342FAD073453DD1F7E7383A12F5527F91
:1012B000EED130484D4602787AB104220F23002047
:1012C0004FF0C80C4FF0020E8DE80C5004900590C2
:1012D0001921234A382306F041FC01362035192E06
:1012E00093D102F00DFB02F0B9F96FE7FFF71EFE94
:1012F00001E0FFF7F3FC194A0021117066E71E496F
:1013000001250D70104B1D48134900221A700570FD
:101310000A68192090470F4B0D481D60057006F0B4
:10132000DFFC2AE755F8230031F813C04008844554
:10133000B3DD21F81300B0E707B0BDE8F08F00BFC0
:10134000AA000020FC24002024020020A400002089
:1013500053170020F40600203C460020E80200203D
:101360007C210020C8F5000040370020603D0020AF
:101370008C240020B80100207D020020BF02002044
:101380002DE9F0013B4AD37A002B69D05E1EF0B202
:101390000D2B46B265DD4FF00E08927A002A5AD026
:1013A000571E172AFFB257DD4FF0180CB0455FDB10
:1013B0004FFA8CFC7FB20CF10105C6EBC6002E4B38
:1013C000E91B07EB80024D0003EB420208F1010824
:1013D0000021BC4515DBB2F900000223AC1EAB4274
:1013E000C4F3400401440CD01CB1B2F90200042340
:1013F00004E0D45E0233D05E09190233AB420144EB
:10140000F7D1013638324645E3D189B21B4B1A7CFD
:10141000501CC0B2062823F8121026D81874598917
:1014200098891A894018D98880189A88401859884C
:1014300080181A884118881844F6251281B2C2F221
:101440009242A2FB0102881A02EB50018A08DA815B
:10145000BDE8F00170471746531C5FFA83FCA5E70F
:101460001E46591C4FFA81F897E700211974D6E7F8
:101470000021CBE78002002058290020940300209F
:10148000394B3A491A68F0B4002412F0FF000C708E
:10149000374B35D11C78002C61D0364B364C93F845
:1014A000C0602578AE4208D2344D93F8C1702E78D2
:1014B0000136F6B2B7422E704AD33148C2890020B5
:1014C0002070B3F8C600904234D22E4C294A92F8CC
:1014D000C80022780132D2B2904222702A4A107893
:1014E00004D201300025C0B22570107093F8C930C5
:1014F000834228D20020107003220A70F0BC70478B
:1015000018781F4A1B4BD28940B9B3F8BC409442AB
:10151000D7D21949194B08701870EFE7B3F8BE001D
:10152000904212D91448047801340470B3F8C6000C
:101530009042CAD3144A93F8C9301078114C002550
:1015400083422570D6D30120D8E70B480470EDE71D
:101550000C4B2A701A700C4B1A700222CDE7084807
:10156000044BC289ADE700BFD82C0020A80300209F
:101570009E010020FC2400209A01002099010020F7
:1015800094030020980100209D01002002282DE9ED
:10159000F84F50D003283ED0012801D0BDE8F88F85
:1015A000574D584B28704120A3F884001E204FF45B
:1015B0002051A3F886004FF6EC704FF47A72A3F82E
:1015C0007200A3F8AE104FF42570A3F8B0104FF4DA
:1015D000A571A3F8B210A3F8B4005A213A20A3F8D9
:1015E000B620A3F8B82064220224A3F87620A3F83A
:1015F0007810A3F87A00222230214FF4203083F8AB
:101600008A4083F89B40A3F87C20A3F87E10C3F89F
:101610008000BDE8F88F3C4B3C491A78002A5DD029
:101620000A88501C82B2082A0A8060D0384B0121F7
:101630001970BDE8F88F374C2578002D5AD1364EF9
:10164000304BB6F88490B6F8868096F88AC096F843
:101650009B7096F89BA0B6F8AE50B6F8B040B6F8BE
:10166000B200B6F8B410B6F8B6204FF0000BA3F8ED
:10167000B620B6F8B820A3F88490A3F8B820B6F83E
:101680007620A3F88680A3F87620B6F8782083F831
:101690008AC0A3F87820B6F87A2083F89B70A3F864
:1016A0007A20B6F87C20A3F8AE50A3F87C20B6F8D8
:1016B0007E20D6F88060A3F87E20114AC3F88060AF
:1016C0004FFA8AF682F800B0A3F87260A3F8B0402F
:1016D000A3F8B200A3F8B410BDE8F88F0888421E42
:1016E00090B208800028A1D1012119709EE7002145
:1016F00019709BE70020132106F0DEF89FE700BF7A
:101700009E010020FC2400209C000020A00100205D
:101710009B010020B8010020543E00200000000082
:10172000F8B5494B93F83050002D40F08780474C76
:10173000474922780E7A42F0010020702778FF2274
:1017400065F341072770217865F3820121702078C5
:1017500040F008072770217865F304112170207884
:101760003C4965F3451020702778098865F3861792
:1017700027701A2066700A27B426A270E27066717C
:10178000A571E5716572A072E57225736773A67B1A
:1017900001EB410746F00100A073A67B988E46F04E
:1017A0000206A673E67BC1EBC70146F0010601EB1A
:1017B0008101E6730918588E8EB222740DF04EFC2A
:1017C0001FA3D3E900230DF0D9FD0DF0BFFEC0F338
:1017D0000722C3B230466274A3740DF03FFC18A315
:1017E000D3E900230DF0CAFD0DF0B0FEC0F30721D0
:1017F000C0B2E1742075627D152065F30502627543
:10180000A37DA26C65F30103A375A17D65F30511AA
:10181000A175E37D65F30103E375E17D65F30411D3
:10182000E175E37D65F34513E375217E192365F3C7
:1018300005012176EF216376A1769047F8BD00BFC0
:101840003333333333B33640FC240020AC03002061
:10185000DC1A0020A001002040F2AC33C2F20003E9
:1018600000221A605A609A60DA601A615A619A61BD
:10187000DA611A625A629A62DA621A635A639A6386
:10188000DA631A64704700BF10B42D4C4208A35CA1
:1018900010F0010014BF03F00F031B095BB2072B0C
:1018A00032D0062B32D0052B32D0042B32D0032B72
:1018B00032D0022B32D0012B32D0002B32D00F2B62
:1018C00032D00E2B32D00D2B32D00C2B32D00B2B32
:1018D00032D00A2B32D0092B13D00F2359184BB218
:1018E0000F2BA8BF0F23174923EAE373CB5CA15C3E
:1018F00020B963F30711A15410BC704763F30301CF
:10190000F9E70E23DBB2E9E70023FBE70123F9E760
:101910000223F7E70323F5E70423F3E70523F1E7C1
:101920000623EFE70723EDE70823EBE70923E9E7C1
:101930000A23E7E70B23E5E70C23E3E70D23E1E7C1
:10194000AC030020F0F80000821E062A38B50346DA
:101950000BD9074D074C0848294634F81320C05CC2
:1019600004F0DCFFE96C04468847204638BD00BF20
:10197000AC030020340000200000002038B5831E96
:10198000062B04460CD90D4DE86C80470C490D4AD6
:10199000085D32F814202946BDE8384005F030B81B
:1019A000074B0849185C31F81410022C0CBF0322B5
:1019B0000222BDE8384005F095B800BFAC03002016
:1019C0000000002034000020094B0A4A0A480B4955
:1019D0005A64002283F85020986483F85120D96417
:1019E00083F8522083F8532083F85420704700BFB7
:1019F000AC0300207D1900004919000059180000AF
:101A000070B5254B254C1D7800F001062078002D7F
:101A100014BF0325022540F0010121702378A26C38
:101A200043F0020020702178212041F0040323704C
:101A300021786FF3C3012170237843F010012170E6
:101A4000237866F345132370217865F3871121709D
:101A50009047012004F054FE2078A26C40F001036E
:101A600023702178212041F002032370217841F076
:101A70000403237021786FF3C301217023786FF37F
:101A800004132370217866F345112170237865F3E0
:101A900087132370904770BD25020020AC030020FF
:101AA00010B540F2AC34C2F20004636C13209847C6
:101AB000E07800F0070010BD3C4B30B55A259D7210
:101AC00040F211359D8240F6C4144FF42575012073
:101AD0009C86DD8332241D84354DD873987383F83A
:101AE0006B001C8383F8290040F271240C209C8336
:101AF00083F82C0083F82D000F24287983F82840E0
:101B0000072404FB00F5A3F884000A2095FBF0F5F8
:101B1000A3F8865083F86E00092583F8700041F21F
:101B200068014FF6F6700022598683F8745003213D
:101B300083F86D40A3F8720006250930F62483F877
:101B40006A1083F8241083F8261083F8512083F854
:101B50002A201A7183F86C5083F86F4083F8AC2008
:101B6000A3F8C6001E20A3F876001920A3F8780079
:101B7000A3F87E1014201821A3F87A00A3F87C00A3
:101B800083F88A2083F88D0083F8CA10A3F8902088
:101B9000A3F8922083F89420A3F89620A3F8982025
:101BA00083F89A20BDE8304001F058BDFC240020A5
:101BB000B846002070B55A4B00F001061A78054669
:101BC00066F3000257481A70017811B1DC790622D9
:101BD00001E0DC79052262F30614DC711878524CBE
:101BE0006FF341001870197894F86B2062F30511B7
:101BF0001970187840F040021A705978042060F388
:101C000006015970238A23B10922B3FBF2F1CCB249
:101C100000E0012442488470C378434C6FF3C7133B
:101C2000C370628A2AB10923B2FBF3F404F07F0186
:101C300000E00121C27861F30602C2703A48838A4B
:101C40002BB10921B3FBF1F2C2F3002400E01C46E2
:101C50003348017964F30001017123B10924B3FB16
:101C6000F4F2D3B200E0012343712F48C18A29B1B5
:101C70000923B1FBF3F404F07F0200E00122284CB9
:101C8000A07962F30600A071E179012262F30301F9
:101C9000E171237A032060F303032372217A60F356
:101CA00007112172637A062060F303036372617A7D
:101CB00041F010036372607A40F020016172A37AF0
:101CC0000E2062F30613A372A26C904715480178A8
:101CD00021B31DBB237866F300032370227866F3DB
:101CE00041022270207865F382002070217865F32C
:101CF000C301217023780C4965F304132370227803
:101D000065F3451222702078042266F3C710207014
:101D10000B7810206370A16CA270884770BD00BF63
:101D2000AC03002025020020FC240020F8B5224C42
:101D3000237843F001002070217841F002022270E4
:101D400025781E4A6FF38205257026786FF3C30647
:101D50002670277804266FF3041727702378A76C62
:101D60006FF345132370207840F0800121701578BF
:101D700010206570A670B847322390202370A16CA4
:101D800060701220884701258B22002702262270CE
:101D9000A36C65701020A770E67098470B20207028
:101DA000A16C65701020A770E67088472846BDE8D2
:101DB000F840FFF7FFBE00BFAC030020FC2400206A
:101DC0002DE9F04F87B038B9414BDD7CB5F12001EA
:101DD0004A4252EB010500E000253E4C666DA76DBE
:101DE00002963B4EE36DD4F860A0D4F86490F47C86
:101DF0003178039704F00F07049301F0010205976F
:101E00000023354F04F0010801921C46D9B218B9DD
:101E10008DB316F803C01CE08A0808D0012A08D048
:101E2000022A08D0032A0CBF52464A4604E0029A0E
:101E300002E0039A00E0049A132908D003F0030C8F
:101E40004FEACC0B22FA0BF25FFA82FC01E04FF072
:101E50001E0CFA7BBCFBF2FB0BFB12C297F80FB017
:101E600012F0FF0FBCFBFBFC0CBF002201226244FE
:101E70005FFA82FC01E016F803C029B9019A0CF060
:101E8000FE0C4CEA020C0BE0132909D10CF0FE0CFD
:101E9000D0B9CDB90599092916D04CEA080C13E040
:101EA000644507D9132904D10CF102045FFA84FCBC
:101EB00000E0A4460949644601F803C00133142B2D
:101EC000A4D107B0BDE8F08F6445EDD8F2E700BFBC
:101ED0001C040020FC240020543E0020AC03002001
:101EE0002DE9F74F3B4D3C4C2B7873B1FFF7D8FDF4
:101EF00058B901222270394B394A0D2183F850001C
:101F00001170287003B0BDE8F08F207860B1334CB9
:101F100001202070A36C98472F480178002939D000
:101F2000052004F0D5FB35E02E490A7882B12E4C0D
:101F300025786DB12D4EB78807F4005398B200286C
:101F4000F9D02A498A8802F40054A5B2002DF9D1AB
:101F5000224E01203070B76CB847244B988800F4AB
:101F600000518AB2002AF9D0204CA58805F4005609
:101F7000B7B2002FF9D11D4B988800F400518AB2F6
:101F8000002AF9D0194CA58805F40056B7B2002FE5
:101F9000F9D1BCE7626C31209047104F14481549C5
:101FA00000230125FE5CFC5C5A5C1E546608B6EBFF
:101FB000520F18BF00250133142BF3D10C4F0E4CD8
:101FC000387800F001012170044CB9B1666C322000
:101FD000B04715E07C02002025020020AC03002061
:101FE000CC120020CA02002024020020000002506F
:101FF0001C04002088F90000A2010020E26C904738
:10200000A36C3220CC4C98472846FFF7D9FEA36C2E
:10201000312098472378C94D43F00103237023787A
:10202000012743F002032370237895F830202F20F6
:1020300062F382032370237895F82B204FF47A768D
:1020400062F305132370237895F82A20DFF8F482D1
:1020500062F38713237095F8242095F8253002F059
:102060000F0242EA0312637862F30403637095F887
:10207000262095F8273002F00F0242EA0312A378D7
:1020800062F30403A370E37867F30403E370237936
:1020900067F304032371637995F82D2062F303033A
:1020A000637195F82C20637962F30713637195F8D7
:1020B0002E206FF02D039B1AA27903F03F0363F3E8
:1020C0000502A271E27963F30502E27195F8282016
:1020D00095F8293002F00F0242EA0312237A62F3E4
:1020E0000403237295F82F20637A62F3010363726D
:1020F00095F86820A37A62F30203A372A36C984751
:1021000023780F206FF30003237023786FF30413F9
:102110002370637867F3010363708E23A370E37801
:1021200043F00303E370E3786FF38203E370E37833
:1021300067F30513E370E37867F38713E370A36C29
:10214000984723783B432370237843F01003237090
:10215000EA7B03235A43637862F306036370288B98
:1021600070430CF07BFF72A3D3E900230DF006F956
:102170000DF0ECF9A378C0F3014262F30103A37000
:10218000C0F30723C0B2E3702071688B70430CF07A
:1021900065FF67A3D3E900230DF0F0F80DF0D6F941
:1021A0006379C0F3014262F301036371C0F3072353
:1021B000C0B2A371E071B8F8020070430CF04EFF9A
:1021C0005BA3D3E900230DF0D9F80DF0BFF9237A12
:1021D000C0F3034262F303032372C0F30723C0B2C8
:1021E0006372A072B8F8040070430CF037FF50A37C
:1021F000D3E900230DF0C2F80DF0A8F9E37AC0F39B
:10220000034262F30303E372C0F30723C0B22373F4
:102210006073688C70430CF021FF45A3D3E9002361
:102220000DF0ACF80DF092F9A37BC0F3014262F31C
:102230000103A373C0F30723C0B2E3732074637C6C
:102240006FF306036374B8F8060070430CF006FFE2
:1022500037A3D3E900230DF091F80DF077F9A37CB3
:10226000C0F3034262F30303A374C0F30723C0B2B5
:10227000E3742075A36C112098472378122043F053
:1022800002032370237895F8502062F3071323701C
:102290002B4B6278197861F38712627062785978F3
:1022A00061F3051262706278997861F3830262705B
:1022B0006278D97861F301026270A278197961F3CA
:1022C0008712A270A278597961F30512A270A278E0
:1022D000997961F38302A270A278D97961F301023E
:1022E000A270197AE27861F38712E270597AE27883
:1022F00061F30512E270E278997A61F38302E27089
:10230000E278D97A61F30102E2702279197B61F3F4
:10231000871222712279597B61F3051222719A7B0F
:10232000237962F383032371A36C98470CE000BF09
:102330000000000000C04640AC030020FC24002048
:102340009CF90000DC1A0020384B1B785BB1207828
:1023500002216FF3010020706170A6786FF301060F
:10236000A670E77011E0EB8E2078C3F3012767F3C6
:1023700001002070D9B261702E8FA278C6F30123BC
:1023800063F30102F7B2A270E770237995F83A205F
:10239000072662F301032371AD8F6079C5F301272E
:1023A000E9B267F301006071A171214C0422E6716A
:1023B0002272637A03256FF301036372A76CA5721F
:1023C0001420B84720781B4A40F00101217026787C
:1023D0006FF341062670257892F8303063F382055A
:1023E00025702078D3F1010738BF002767F3C300B9
:1023F00020702178104B6FF3041121702678FF278D
:102400006FF345162670227800216FF38612227032
:102410001D7AB420054E6570A770E7706071A171D8
:10242000E171327852B16172AF2309E025020020D8
:10243000AC030020FC240020DC1A002062721A2366
:1024400000270A20A372E77227736073A17BCC4D2B
:1024500041F00106A673A27BCA4E42F00203A373A9
:10246000E77BFF2147F00100E073708E21740CF0D0
:10247000F5FDC1A3D3E900230CF080FF0DF066F851
:10248000C0F30722C3B26274B08EA3740CF0E6FDF1
:10249000B9A3D3E900230CF071FF0DF057F8C0F396
:1024A0000727C0B2E7742075B74C2678697D06B15E
:1024B0000126B34C66F305016975A57DEF266FF320
:1024C0000105A575A27DA56C6FF30512A275E37DCC
:1024D0004FF00E0B6FF30103E375E77D4FF0740AC5
:1024E0006FF30417E775E07D19276FF34510E0756A
:1024F000217E15206FF3050121766776A676A14E21
:10250000A847336C4FF025091D0EDAB2C3F307203C
:10251000C3F30741736C22706070DAB2A170C3F329
:102520000720E570C3F307411D0EB36C2271607183
:10253000DAB2A171C3F30720E571C3F307411D0EA1
:10254000F36C22726072DAB2A172C3F30720E572F3
:10255000C3F307411D0E22736073A173E573002559
:102560002574A36C65741720A574E57498472278C8
:102570004FF0800865F300022270207865F3410077
:1025800020702178182065F3820121706378A16C96
:1025900065F301036370627865F305126270884722
:1025A0007A48F37A027A317BD01A421A2178501E87
:1025B00082B241F0010020702178013341F0020025
:1025C00020702178DBB241F0040020702178707B0C
:1025D00060F3C3012170207865F304102070217826
:1025E00065F345112170207840F04001217020787A
:1025F00040F0800121706178C2F3032060F3030191
:10260000D2B26170A270E370217960F303010320FC
:1026100021716271A371A26CE571257260723846F6
:10262000904727785B2147F001037D22B620237075
:10263000A76C6570A170E570207162711A20B847AF
:102640002846FFF7DDF9237843F001012170207857
:1026500065F341002070277896F869202A2062F3FC
:10266000820727702378012765F3C30323706178FD
:10267000782267F3010161700521A570A36CE170F8
:1026800025716571A271E57184F808B084F809A01C
:10269000A57284F80B9084F80C808DE806009847AA
:1026A0002078062267F3010020706570A270E57043
:1026B00025710199A36C61712B20A57184F807B075
:1026C00084F808A0657284F80A9084F80B80019160
:1026D00098472078072167F3010020706570A1708A
:1026E000E5702571019AA36C62712C20A57184F8A4
:1026F00007B084F808A0657284F80A9084F80B800B
:10270000019198472078082267F301002070217812
:102710003C2365F3870121706570A270E570257117
:10272000637101980F22A023D021A071E1712D20A7
:102730002272A16C637288472078009A62F30300CA
:102740002070237843F01001217060783843607066
:10275000627842F002036370617865F3830161700F
:1027600096F86A006278A16C60F305126270637873
:102770002E200DE0AFF300803333333333B33640D4
:10278000AC030020FC24002025020020DC1A0020DD
:1027900065F3871363708847626C284690478948C1
:1027A000037833B10B2121706770A5700225E570A5
:1027B00023E0277896F8535065F3000727702278B6
:1027C00096F8521061F341022270207840F004051F
:1027D0002570277863F3C3072770217863F304110A
:1027E0002170227863F345122270207863F3C710BA
:1027F0002070367804236670A370734C4FF0030A80
:10280000A76C1020B84784F800A06278A66C6FF31C
:102810000412627060784FF00A096FF30100607073
:102820001C20B047237815266FF30003237021780E
:102830004FF0160841F0020525702778E02547F093
:10284000040222706078442769F306006070A36C6C
:1028500084F802801D20E770267165719847217801
:102860006FF300012170227842F00200207023787B
:102870001E2043F0040121706278A36C69F3060204
:10288000627084F80280E77026716571984720783D
:102890006FF300002070217841F00202227023784B
:1028A00043F00400207061781F2069F30601617015
:1028B00084F80280E7702671A76C6571B8472678A6
:1028C0007D2046F001052570227801256FF3410235
:1028D00022702378A76C6FF30413237084F801A08F
:1028E000A070E17824206FF30301E1702571B847EF
:1028F0002678F0276FF300062670627890266FF333
:1029000000026270A570E378A16C6FF30003E370BE
:1029100025716771A0796FF30000A071E571252022
:102920002672884722786FF3000222706378A26CC7
:102930006FF300036370A570E0786FF30000E07040
:1029400025716771A17926206FF30001A171E571EE
:102950002672904723786FF3000323706078A36C8E
:102960006FF300006070A570E17827206FF300011D
:10297000E17025716771A2796FF30002A271E571B0
:102980002672984720786FF3000020706178282025
:102990006FF300016170A570E278A16C6FF3000223
:1029A000E27025716771A3796FF30003A371E5717C
:1029B00026728847054890F8510003B0BDE8F04FF3
:1029C000FFF7F8B825020020AC030020FC2400200B
:1029D000002870B50E4614BF7C254A2514BF4B2431
:1029E0000024AC4206D8204631460134FEF74CFFA5
:1029F000E4B2F6E770BD00BF2DE9F041564B88B058
:102A00006C4603F1200518685968224603C2083352
:102A1000AB421446F7D15148514B90F82C1008AEF8
:102A200006EB410793F800804E4B41F6583546F2CD
:102A3000A812002037F8206CB8F1000F0CBF9446A4
:102A4000AC4603F1320104460027DD5B3837B7F5A9
:102A5000FC7F2C44F9D100229F18B7F8F851383286
:102A6000B2F5A87F2844F7D102338B42ECD19621EE
:102A70009CFBF1F86FF00F0707FB08F206EB42052D
:102A8000E12294FBF2F44FF47A7303FB05F894FB14
:102A9000F1F57D4390FBF1F090FBF1F14F4306EB34
:102AA000450398FBF3F21501642495FBF4F206EB61
:102AB000470642F21073A03A98FBF6F85A434FEAE1
:102AC000081898FBF4F4A03C5C4341F24F2C92FBB5
:102AD000FCF5EAB251B294FBFCF40029E3B24FF0EA
:102AE0000A0008DD91FBF0F600FB161149B204293B
:102AF0000CDD2A1809E04AB191FBF0F600FB161133
:102B000048B2011D02DAA5F10A02D2B259B2002977
:102B10004FF00A0008DD91FBF0F500FB151149B2FA
:102B200004290CDD231809E04BB191FBF0F500FB03
:102B3000151148B2011D02DAA4F10A03DBB20A49F9
:102B40000A2052B25BB292FBF0F293FBF0F00A80E3
:102B5000488008B0BDE8F081D0F80000FC240020D7
:102B600025020020541700200404002010B5002383
:102B70000E491A465818C47C013B04F0010013F1B9
:102B8000140F40EA4202F5D1C2F34310C1B2C2F3BE
:102B90004302D3B2CC0818BF40F0F001044CD8086F
:102BA00018BF42F0F0032180638010BD1C04002098
:102BB0000404002010B5064C3120636C9847E07C7B
:102BC000A26C40F00101E1743120904710BD00BFBC
:102BD000AC03002010B5044C3120636C9847E07CB6
:102BE00000F0010010BD00BFAC0300202DE9F04F44
:102BF0006A4B6B4F93F9000001220128DFF8B8916E
:102C0000397808BF7878FC7883B0019189F8002082
:102C100008BF0190002C00F0B780624CDFF89CB137
:102C2000002020608BF800005F4D604EDFF890813F
:102C3000DFF890A108E0226849F2E031531CC0F2AD
:102C400004018B42236041D8AA78002A48D19BF81E
:102C50000010002944D10021C5F20201888800F447
:102C6000005398B220B98A8802F480518BB253BBCA
:102C700030780028DFD0FEF713FFB8B998F80020AD
:102C80006AB940F2B521C2F200010B78002BD2D014
:102C900044F2B860C2F20000427B002A5ED00123F9
:102CA00000208BF800308AF85000C4E7FA78002A38
:102CB000C1D1019B4FF61811C0F20001C85C400859
:102CC00004F09AF8B7E7FEF79BFED1E7FEF7E8FEBF
:102CD00003284ED0334A00201060AA78002AB6D0CC
:102CE000FB78002B57D00020A87089F800009BF8D3
:102CF000002082BB2E4E0E224FF04055C2EBC20781
:102D0000B80000F11804511C36F8147001F5167360
:102D100045F8237017235C1EE4B203F1010CC318BD
:102D200036F81390671C631E00EB040836F8188011
:102D30000CEB4C0C07EB4707DBB201EBCC0C01EBC7
:102D4000C707FF2B45F82C9045F82780E3D1013ABF
:102D5000D2B2FF2AD2D103B0BDE8F08F817B002927
:102D60003FF469AF012300208BF800308AF850004F
:102D700061E70023DFF850E0194601201A468EF87B
:102D8000003004F0EDFF5FE70A4D019EAB5D58088F
:102D900004F032F841E704F05DF8A4E7A800002051
:102DA000FC240020B802002034460020ED02002060
:102DB000D012002018F90000160200202502002081
:102DC000E9020020AC030020AF010020F8B5314B30
:102DD000314D324C1878A9782278002837D053B278
:102DE0002F4F00263E6077B29F4243D02D4A117884
:102DF000002947D12C4B2670002018702B4B012F37
:102E00001A7808BF6C7842F0010018BF2C7818704F
:102E10001A78996C42F002021A701A78102042F067
:102E200004021A701A786FF3C3021A701A786FF3DB
:102E300004121A701A786FF345121A701A786FF329
:102E4000C7121A7004225C709A708847F8BD53B29A
:102E5000581CC5D01248C1EB011106688900B14267
:102E60000EDD0136012B066004D0B14202DC0126E2
:102E70003746BBE70C4B18780028E7D057B2BBE7C2
:102E80000126B0E706F10E030020D9B204F014FDCC
:102E9000B0E700BF9C050020FC240020A800002013
:102EA000A8010020B8010020C9020020AC030020C6
:102EB0002DE9F04F8B4BDFF8488293F9001083B077
:102EC00001220129DFF83CA2009008BF98F8011008
:102ED00098F8000098F8034001908AF8002008BF95
:102EE0000191002C00F0F4807F4CDFF81CB200232D
:102EF00023608BF800307D4D7D4EDFF810927D4FC2
:102F000008E0226849F2E033511CC0F20403994200
:102F1000216043D8A97800294BD19BF80020002AD2
:102F200047D10022C5F20202918801F4005080B21C
:102F300020B9938803F4805291B261BB30780028A5
:102F4000DFD0FEF7ADFDC0B999F8003073B940F29B
:102F5000B522C2F2000211780029D2D044F2B86042
:102F6000C2F20000437B002B00F09C800121002076
:102F70008BF8001087F85000C3E798F80330002B57
:102F8000BFD101994FF61812C0F20002505C400800
:102F900003F032FFB5E7FEF733FDCFE7FEF780FD24
:102FA000032800F08A80504AA97800201060002988
:102FB000B3D098F80300002800F091800023AB7094
:102FC0008AF800309BF8001000293BD1DFF840C19F
:102FD000494E4FF00E084FF04051009CC8EBC80915
:102FE00008F101024FEA8909002C2ED109F11807D6
:102FF0003CF8175002F5167441F824501723581E58
:10300000C0B25D1C441C09EB030A09EB0003013844
:103010003CF81A7005EB450B04EB44043CF81350E4
:10302000C3B202EBCB0B02EBC404FF2B41F82B70B5
:1030300041F82450E3D108F1FF385FFA88F8B8F17D
:10304000FF0FCAD103B0BDE8F08F09F1180536F8BB
:10305000157002F5167041F8207017235C1EE0B25F
:103060005D1C441C09EB030A09EB0003013836F828
:103070001A7005EB450B04EB440436F81350C3B249
:1030800002EBCB0B02EBC404FF2B41F82B7041F891
:103090002450E3D108F1FF385FFA88F8B8F1FF0F48
:1030A0009BD1CFE7827B002A3FF42BAF0121002088
:1030B0008BF8001087F8500023E70023DFF854E076
:1030C000194601201A468EF8003004F049FE21E727
:1030D0000A4D019EAF5D780803F08EFE04E703F011
:1030E000B9FE6BE7A8000020B8020020344600209B
:1030F000ED020020AC030020D012002018F90000DF
:10310000FC2400201602002025020020E9020020F5
:10311000C0330020AF0100202DE9F04F784ADFF8DE
:1031200000A2DFF8009250789AF8003083B0019046
:1031300099F800B0002B00F095807249B1F9187031
:10314000072F00F39380002F40F3898000216E4DFC
:10315000DFF8B881084675E0002B00F0A780C3EBCC
:10316000031602EB460438F91410684E0429D8BF40
:1031700000215C1CC4EB041402EB440436F9144037
:10318000042C00DD09190D2B09DC9C1CC4EB041474
:1031900002EB440436F91440042C00DD0919182A06
:1031A0005BD8002B00F08880541CC3EB031604EBA3
:1031B000460638F91660DFF854C1042E00DD89197F
:1031C0005E1CC6EB061604EB46063CF91660042EA0
:1031D00000DD89190D2B09DC9E1CC6EB061604EBDD
:1031E00046063CF91660042E00DD8919182C22D8F9
:1031F000002B5ED00232C3EB031402EB440638F915
:103200001640424E042C00DD09195C1CC4EB04146A
:1032100002EB440436F91440042C00DD09190D2B8F
:1032200009DC0233C3EB031302EB430236F912301D
:10323000042B00DDC918282918DC0130C0B2B842BF
:1032400001460CDA05EB4104627815F81130511E85
:10325000182981D90021182AA3D9541CC6E70022B5
:103260008AF800202A4B1868002829DD4FFA8BFBCA
:10327000284C002525606CB25C4535D0264B1A7869
:10328000002A36D1012C89F8005005D0002003B067
:10329000BDE8F04F03F044B920480378002BF5D186
:1032A000204603B0BDE8F04F03F03AB9174E194677
:1032B0005FE7164E0232A8E7DFF850C0541C7FE7E4
:1032C0004FFA8BFBBBF1FF3FD2D0124B01991A682A
:1032D00091420CDD501CBBF1010F186004D08142FB
:1032E00002DC01252C46C9E703B0BDE8F08F0125BB
:1032F000C1E705F10E010020C9B204F0DDFAC1E713
:1033000018F900008002002028020020940E0020FE
:10331000C0010020A8010020B80100207E0200208A
:103320009C050020A80000202DE9F04F85B0002169
:103330004FF4607203909F480CF031F900214FF474
:1033400060729D480CF02BF9FEF7F0FC3C2003F076
:1033500053FD0027994D9A4CDFF868820126C5F28B
:1033600002072B78002B00F01281A0780028FCD0F7
:10337000002700204FF40056FEF71CFCC3F20006A5
:1033800003F068FDA7702F700E2402970F2542F2FC
:10339000FC43C2F2000393F8BA10002940F0F08019
:1033A0000298039F82B2002F7CD104F5F07736F8A3
:1033B0001700C4EBC40183B2C90041F2D02743F225
:1033C000C03841F254793231C2F20007C2F200092A
:1033D000981AC2F2000801EB070B80B201EB080754
:1033E00005F5167E49444FF0405A27F8020C2BF899
:1033F000023CABF1020C4AF82E00023F881E21F875
:10340000023C4FF0180B4FF0170909EB890304EB4E
:10341000830136F8113009F1FF319BB2C2EB03088A
:1034200001EB810A1FFA88FE0BEB4B0B04EB8A08B9
:10343000CDF8008005EBCB0B4FF0405A27F802EC9B
:103440002CF8023C4AF82BE0DDF800E020F8023CC2
:1034500036F81E3009EB49099BB2C2EB030AA0F112
:10346000020805EBC90E1FFA8AF08B464FF0405157
:1034700027F8040C2CF8043C043F41F82E00ACF172
:10348000040CA8F1020028F8023C0BF1FF39BBF153
:10349000000FBAD12546013C002D7FF478AF05B06E
:1034A000BDE8F08F04F5F07336F81300C4EBC401E7
:1034B000C90041F2D02743F2C03A83B23231C2F29E
:1034C0000007C2F2000A41F2547B01EB070901EB4D
:1034D0000A0C9F1AC2F2000B59442CF8027C05F525
:1034E00016704FF0405729F8023CACF1020847F83B
:1034F0002030A1F1020C21F8023CA9F102091821A7
:10350000172303EB830004EB800736F8170001EB69
:10351000410180B25F1EC2EB000E05EBC10107EB5B
:10352000870A4FF0405B28F802EC29F8020C04EB04
:103530008A0E4BF821002CF8020C36F81E0003EB23
:10354000430380B2ACF1020A05EBC303C2EB000CEB
:1035500028F804CC29F8040C39464BF82300A9F1CB
:103560000409A8F10408AAF1020C2AF8020C7B1E37
:10357000002FC6D12546013C002D7FF408AF8EE711
:103580000020214605F0AAFF82B2029208E7A17846
:10359000002000297FF4ECAE98F8002032B1BB88FF
:1035A00003F002018AB2002A3FF4DBAE03F04EF8CA
:1035B0002E70D6E6D0120020C0330020BE020020BC
:1035C00034460020E90200202DE9F0471B4A82B072
:1035D00013681B4E13B93068010122D5194DDFF86D
:1035E00068800121AA4288F8001011D2134C05F11D
:1035F000140A002701E098F80010C4EB0A09B9F199
:10360000140FA8BF4FF0140971B94C44AC42F2D367
:1036100031680B4B0A0100D4FEE71A6822F0006003
:10362000186002B0BDE8F08722460097019700209D
:103630005FFA89F1022304F087F9E6E700500020E1
:10364000A0000020EC5F0020B801002008B502F0C7
:103650008BFB0020BDE8084004F0D0BC08B500F0AA
:103660005DF9BDE80840FEF73BBC00BF4FF040539A
:103670001149D3F8382910B4D3F89809D3F83C4944
:10368000D3F89C290968C2F307428A4211DDC0F3CE
:10369000074090420DDBC4F30744944209DBD3F8A2
:1036A0009C490648A1B20124047005480280C3F871
:1036B0009C1910BC704700BF68210020A3010020A6
:1036C000A4010020084B1A786AB14FF04052074815
:1036D000D2F89C19B0F9000089B241EA0040C2F862
:1036E0009C0900221A707047A3010020A401002049
:1036F00038B50D4B1878A0B9FFF77EF90B4D0C4C7F
:10370000696C32208847002094F90010FFF760F9B7
:10371000012094F90210FFF75BF9AA6C3220904760
:1037200038BDFFF723FAE9E7A2010020AC0300202F
:10373000040400202DE9F74FFFF74CFA634B19788A
:10374000002940F0C18020B161480278002A40F091
:10375000BB80604E5E4996F8BA70087800230197E6
:1037600086F8BA3018B9FFF741FAFFF73FFAFFF7CA
:1037700021FA02274FF040567A1E12F0FF0700F0A0
:103780009F80554800214FF4E0620BF008FF524D36
:103790000324013C22D0FFF729FA0F234FF0180C25
:1037A0004FF01C0E5A1ED3B2FF2BF2D00EFB03F8C3
:1037B000192203F10109511ECAB2FF2AF2D0501C8E
:1037C0000CFB009156F8210008EB02011FFA80FA69
:1037D00055F82100504445F82100ECE7DFF8F89057
:1037E0004FF6FF7123462546A6460F224FF01C08D0
:1037F000501EC2B2FF2A1ED008FB02FA19240097FD
:10380000671EFCB2FF2C14D00AEB040C59F82C00F4
:10381000324F40081FFA80FB8342B8BF5B468142AB
:10382000C8BF5946082A27F81CB094BF86442D18F3
:10383000E6E7009FDCE72A4896228180C380591A78
:10384000E123BEFBF3FEB5FBF2F501818581A0F813
:103850000AE0FFF74DFFFFF7C9F900234FF6FF70AD
:103860001D469C460F214FF018080139C9B2FF29A7
:1038700017D0192401F10109013CE4B2FF2CF4D066
:10388000621C08FB029256F8222092B29342B8BF03
:1038900093B29042C8BF90B2082994BF9444AD1827
:1038A000EAE70F4A9621D0811382181AE123BCFB64
:1038B000F3FCB5FBF1F55082A2F814C0D5825BE7AA
:1038C000044B019F83F8BA70BDE8FE8F25020020EB
:1038D000A2010020FC2400204037002054170020C3
:1038E0000404002043F654604FF62C3108B5C0F2B2
:1038F0000001D422C2F200000BF048FE08BD00BF58
:1039000042F2FC4043F6546108B5C2F20001D422F1
:10391000C2F200000BF03AFE08BD00BFF8B542F25B
:10392000FC43C2F20003D98BDD7B9C8B91FBF5F04D
:10393000621A86189F7AB1B2B3F812E001FB07F75A
:103940001E8AB3F816C09A8A7644B3F820E006EBD4
:103950004C0641F6DC2302EB420C44F23C62C2F21C
:10396000000366449EFBF5F597FBF4F4C2F20002F7
:10397000988059801E80DD801C7211680020884765
:10398000F8BD00BF43785AB20D2A01DC591C4170C2
:1039900003785AB2002A01DD591E0170C3785AB269
:1039A000172A01DC591CC17083785AB2002A01DD44
:1039B000591E8170704700BF2248F0B4B0F9A010C2
:1039C00048F68904B0F99E20C8F6880448F21F53CF
:1039D00084FB0156C5F2EB1383FB02577418D5170D
:1039E000CE17C5EB2717C6EB2414174E174B3DB265
:1039F0000027376090F8AD00192624B21E600F260C
:103A00005E609D60DC60C0B91148124C02602160AC
:103A100048F21F5402EB4202C5F2EB1484FB021081
:103A2000D117C1EB20144FF458624FF040500021E1
:103A30005C611C61F0BC0BF0B2BD0548016005493A
:103A40000A60E5E7FC240020D82C0020E81A0020BA
:103A5000D41A00206407002042F6D840C2F20000C9
:103A600000214FF4A8720BF09ABD00BF2DE9F04F72
:103A7000DFF8C8B2AFB000214FF460721090A848D0
:103A80000BF08DFD00214FF4A87258460BF087FD16
:103A9000A4497F22FF238BF84C218BF84A218BF815
:103AA0004D318BF84B318BF848218BF846218BF840
:103AB00049318BF847318BF844218BF842218BF840
:103AC00045318BF843318BF840218BF83E218BF840
:103AD00041318BF83F318BF83C218BF83A218BF840
:103AE0003D318BF83B318BF838218BF836218BF840
:103AF00039318BF837318BF834218BF832218BF840
:103B000035318BF833318BF830218BF82E218BF83F
:103B100031318BF82F318BF82C218BF82A21487802
:103B20008BF82D3144B20D2C8BF82B318BF82821DA
:103B30008BF826218BF829318BF827318BF824213B
:103B40008BF822218BF825318BF823318BF820213B
:103B50008BF81E218BF821318BF81F318BF81C213B
:103B60008BF81A218BF81D318BF81B318BF818213B
:103B70008BF816218BF819318BF817318BF814213B
:103B80008BF812218BF815318BF8133103DC441CB0
:103B9000E5B24D706CB20A784FFA82FEBEF1000FAA
:103BA00007DD531E5F485FFA83FC80F800C04FFAC0
:103BB0008CFE91F803A04FFA8AF5172D06DC0AF166
:103BC0000108584A5FFA88FA82F803A089784BB254
:103BD000002B03DD01395348C9B281707445A046FA
:103BE000C0F2BC85504E514A96F9009096F90100FA
:103BF00096F9027096F903404D4D08EB090624959D
:103C0000013608EB0005241A381A92F9037012964F
:103C100092F9003092F902C00C9792F90120129F9C
:103C20000B92A7EB0712C0EB001742484FFA8AFA33
:103C3000006801352B902498CDF854A0808AC5EBFC
:103C40000515C4EB0414CDF83CC0DDF854A049B20E
:103C50006D0064000E9016911495374818940C99D5
:103C60000F9D0B9CC8EBC8060AEB860652009A44CF
:103C7000139200EB46060AF1010CCA1AE81ACE4468
:103C80007F00E31A1196CDF85CE01997CDF868C073
:103C90001B921C90C2461D93159F169EB742C0F200
:103CA00085810AF10101129DC1EB01121A9C07EBFB
:103CB0004203C5EB051041F68C5741F68C5940F68E
:103CC000946204EB4001C2F20007C2F20009C2F2A2
:103CD000000201EB0908DE1902EB4309169B149858
:103CE0005D1E189FDDF86CE00F95139D1499199ACD
:103CF000C41905EB0E078B181D9D1F942097139C6C
:103D00001C99139F621801367C1900201E93D64619
:103D10004546159B219222948246B0467CE000BF26
:103D20007C2100207833002008F900000CF9000005
:103D30008002002068210020D4250020A00500205A
:103D4000109F002F00F02981B9F90210D2B294001F
:103D50000BEB04070D9402F110007C680B900B9E96
:103D600001FB0E445BF826007C6001FB03070D9805
:103D70000997099F841802F144004BF826700BEB59
:103D8000800696F902700BEB440423970E9F0137CF
:103D90000E97B4F87C70CF190B97B4F882700C377B
:103DA0000C970B9FA4F87C700C9FA4F882700E9C5B
:103DB000A7B2239C0E9774450BEB8007C8BF86F80B
:103DC00002E097F903600BEB80047645B8BF87F8F3
:103DD00003E094F904700BEB80009F42C8BF23718D
:103DE0000D9C90F90560A2189E420BEB4207B8BFEC
:103DF0004371B7F97E007837814203DDF9807B7229
:103E000087F808E00F9C013B013DA342AAF1020A9A
:103E1000A9F1020900F0C98018F80169A6F11000A3
:103E20006F2840F22684721ED1B20E2988D9109FC5
:103E3000002F00F0B680B9F902100029E2DD209EC3
:103E40001F9A7019805C471E0E2F00F217840127FD
:103E500003263C460D96844002268DF8B0000322CE
:103E60000420269023920C960B97219842191E98B5
:103E7000105C421E0E2A279012D802460120904064
:103E800004420DD12EAA04432798D21902F8080C37
:103E90000C9F269A23980B970C9037460D9E0D92F7
:103EA000229A14985219105C421E0E2A25900ED8A0
:103EB000024601209040044209D12EAAD219374669
:103EC000259E04430C9802F8086C0D9E0B902878F0
:103ED000421E0E2A00F2E18301228240144240F089
:103EE000DC832EAAD71907F8080C37462B9891FBCC
:103EF000F7F681420D9640F3CD8307F110020B9245
:103F0000D4B27E1E002E0C9688F8014040F32B841C
:103F10000D9C0D9E04FB0EF203FB06F60D982392FA
:103F20000B9A84B20020112A2696289440F0BA8376
:103F3000CDF89C800646F04629930DF1B80C0CEBA9
:103F4000000414F8080CDDF88CE0421ED2B2940094
:103F50000BEB0400A3184468103274444460DDF88D
:103F600098C05BF822000BEB430300EB0C044BF80A
:103F70002240B3F87C00289A01361418A3F87C403C
:103F80000C9BF6B20D9AB342C2EB01013046D4DC71
:103F9000C646299BDDF89C80E6E3119E36F90A109F
:103FA000D4E6119C34F90A1047E7F246129E139AA0
:103FB00014981199179B771E1E321E3838399F426C
:103FC00012970AF1FF3A1392149011917FF464AEA4
:103FD0000E9E249FBE82BBF87C00BF4D002800F0DF
:103FE000D9822A6C6C6895F8131103B2E401D001F0
:103FF00094FBF3F490FBF3F24BB20D2B6C602A644C
:1040000040F3E7829BF8125168B2002803DDB24A00
:104010006B1E82F812319BF815114DB2172D40F32B
:10402000D3829BF814114AB2002A03DDAA484D1E20
:1040300080F81451BBF88620A74B002A00F07E833D
:104040005D6C9C6893F8171112B2E401E80194FBCF
:10405000F2F490FBF2F54AB20D2A9C605D6440F3E5
:10406000AF829BF8163158B2002803DD9A4A5D1ED4
:1040700082F816519BF819114BB2172B40F39B8213
:104080009BF818114AB2002A03DD93484B1E80F8B2
:104090001831BBF89050904B002D00F04B83DC683A
:1040A000986C93F81B2129B2E50195FBF1F4C0014E
:1040B00055B290FBF1F10D2DDC60996440F38D82D7
:1040C0009BF81A3158B2002803DD834D591E85F83C
:1040D0001A119BF81D315AB2172A40F392829BF8AD
:1040E0001C516BB2002B03DD7B4A681E82F81C0159
:1040F000BBF89A10784D002900F01A83EB6C2C69FC
:1041000095F81F2109B2E401D80194FBF1F490FB6A
:10411000F1F351B20D292C61EB6440F36E829BF8F0
:104120001E5168B2002803DD6B496B1E81F81E31F9
:104130009BF821516AB2172A40F35A829BF820114A
:104140004DB2002D03DD644A481E82F82001BBF801
:10415000A410614B002900F0F3821D6D5C6993F897
:10416000232109B2E401E80194FBF1F490FBF1F59D
:1041700051B20D295C611D6540F34D829BF82231DF
:1041800058B2002803DD54495D1E81F822519BF886
:1041900025315AB2172A40F339829BF824114BB2C9
:1041A000002B03DD4C4A481E82F82401BBF8AE50B8
:1041B000494B002D00F0C6829C69586D93F8272169
:1041C00029B2E50195FBF1F4C00155B290FBF1F184
:1041D0000D2D9C61596540F330829BF8263158B211
:1041E000002803DD3C4D591E85F826119BF8293126
:1041F0005AB2172A40F31C829BF828516BB2002B4D
:1042000003DD354A681E82F82801BBF8B810324D2C
:10421000002900F09982AB6DEC6995F82B2109B269
:10422000E401D80194FBF1F490FBF1F351B20D29B4
:10423000EC61AB6540F3F8819BF82A5168B2002825
:1042400003DD25496B1E81F82A319BF82D516AB296
:10425000172A40F3E4819BF82C114DB2002D03DDA9
:104260001D4A481E82F82C01BBF8C2101A4B0029C7
:1042700000F06C82DD6D1C6A93F82F2109B2E40115
:10428000E80194FBF1F490FBF1F551B20D291C62A9
:10429000DD6502DC013283F82F219BF82E3158B204
:1042A000002803DD0C495D1E81F82E519BF8313149
:1042B0005AB2172A40F3C5819BF830114BB2002B3C
:1042C00003DD054A481E82F83001BBF8CC50024B92
:1042D000002D00F0318201E0A00500205C6A186E1C
:1042E00093F8332129B2E50195FBF1F4C00155B2F1
:1042F00090FBF1F10D2D5C62196602DC013283F84E
:1043000033219BF8323158B2002803DDB54D591ED8
:1043100085F832119BF835315AB2172A40F396814D
:104320009BF834516BB2002B03DDAE4A681E82F855
:104330003401BBF8D610AB4D002900F012826B6E31
:10434000AC6A95F8372109B2E401D80194FBF1F485
:1043500090FBF1F351B20D29AC626B6602DC0132C5
:1043600085F837219BF8365168B2002803DD9D4956
:104370006B1E81F836319BF839516AB2172A40F327
:104380006A819BF838114DB2002D03DD954A481E15
:1043900082F83801BBF8E010924B002900F0D88178
:1043A0009D6EDC6A93F83B2109B2E401E80194FBBD
:1043B000F1F490FBF1F551B20D29DC629D6602DC4F
:1043C000013283F83B219BF83A3158B2002803DDD3
:1043D00084495D1E81F83A519BF83D315AB2172A43
:1043E00040F33E819BF83C114BB2002B03DD7D4A2C
:1043F000481E82F83C01BBF8EA507A4B002D00F0D1
:10440000A9811C6BD86E93F83F2129B2E50195FB79
:10441000F1F4C00155B290FBF1F10D2D1C63D9668A
:1044200002DC013283F83F219BF83E3158B200286C
:1044300003DD6C4D591E85F83E119BF841315AB28F
:10444000172A03DC6749581C81F841019BF8405149
:104450006BB2002B03DD634A681E82F84001BBF893
:10446000F410604D002900F077812B6F6C6B95F88C
:10447000432109B2E401D80194FBF1F490FBF1F37C
:1044800051B20D296C632B6702DC013285F84321A0
:104490009BF8425168B2002803DD52496B1E81F837
:1044A00042319BF845516AB2172A03DC4D4B681C18
:1044B00083F845019BF844114DB2002D03DD494AB4
:1044C000481E82F84401BBF8FE10464B002900F05C
:1044D00050825D6F9C6B93F8472109B2E401E801BB
:1044E00094FBF1F490FBF1F551B20D299C635D67EB
:1044F00002DC013283F847219BF8463158B200288C
:1045000003DD38495D1E81F846519BF849315AB2A6
:10451000172A03DC334D581C85F849019BF84811D4
:104520004BB2002B03DD2F4A481E82F84801BBF82E
:1045300008512C4B002D00F01A82DC6B986F93F819
:104540004B112AB2E50195FBF2F4C0014DB290FB8C
:10455000F2F20D2DDC639A6740F387809BF84A31B5
:1045600058B2002803DD1F4A5D1E82F84A519BF8AD
:104570004D114BB2172B03DC1A4D481C85F84D0129
:104580009BF84C114AB2002A03DD16484B1E80F8F6
:104590004C310F20249DCBF80000B5F91610124BBA
:1045A00009B99A8ADA8211480178002940F0D0814D
:1045B0002FB0BDE8F08F0B4D481C85F819015FE561
:1045C000013183F817114CE5064B481C83F815019F
:1045D00027E5013185F8131114E5013283F81B2119
:1045E0006EE500BFA005002080020020B801002079
:1045F000BE4B681C83F82101A0E5013285F81F211C
:104600008DE5BA49581C81F81D0168E5B74D581C65
:1046100085F82501C1E5013283F82321AEE5B34BCE
:10462000681C83F82D0116E6013285F82B2103E67C
:10463000AE49581C81F82901DEE5013283F82721B3
:10464000CBE5AA4D581C85F8310135E6A749581C21
:1046500081F8350164E6A54B681C83F8390190E6C2
:10466000A24D581C85F83D01BCE6013183F84B1181
:1046700074E7002188F80110FFF7C4BB022400276B
:10468000012603220D94239426920C963C460B9708
:10469000FFF7EBBB11240B9433E40B9C002C3FF48D
:1046A000B1AB23E44FF60016C0F20006F45DCDF87E
:1046B00094800A9727940646F0461F460DF1B80CE1
:1046C0000CEB000313F8080CDDF88CE0421ED2B2AC
:1046D00094000BEB0400A318446810327444446047
:1046E000DDF898C05BF822000BEB430300EB0C04F1
:1046F0004BF82240B3F87C00289AB3F882E01418F3
:10470000279A299402EB0E04299A0136A3F87C20FB
:10471000A3F882400C9BF6B20D98B342C0EB0101A6
:104720003046CBDC3B46C6460A9FDDF894801BE052
:1047300003202FE702202DE708202BE7012029E79F
:10474000042027E7052025E7062023E7072021E7A7
:104750000A201FE70B201DE70C201BE7644D249562
:1047600039E4092016E700202EAC201810F8086C58
:10477000721ED0B284000D940BEB04020D9C00F16C
:104780001006201854680BEB400001FB0E445460E7
:104790005BF8262001FB03244BF82640B0F87C6030
:1047A0000B9A8919A0F87C107830112A3FF42AABB3
:1047B0004FF60014C0F200044689E15D8A19428177
:1047C0000C9800287FF71EAB0126BC19239300220A
:1047D0000D94CDF830E033464FFA83FEBE457ADAC9
:1047E0002EA98A1812F8080C01EB0E06441EE2B23C
:1047F0000121914016F8086C0B91741E0D990EF171
:10480000010C42F27C16C2F200066FEA0C0040185E
:10481000E1B206EB42040B9E00F0010091422594A8
:10482000B6B20B907BD9012000FA01F142F27C1064
:10483000C2F2000030F81240214320F812100D9C03
:104840000CF10101A142604645D00B9CC4B12EA8D9
:1048500000EB0C0E1EF8084C601EC0B2904268D8E7
:1048600042F27C14C2F2000434F810C046EA0C0E86
:1048700024F810E0DDF834E00846013171452AD013
:10488000259C25932EAB181810F8083C581EC0B272
:1048900090423AD9012303FA00F0B4F800E04EEA5E
:1048A000000323802EA8431813F808CC01310CF123
:1048B000FF300B91C1B291421CD94FF0010C0CFAA0
:1048C00001F1238843EA010020800B980D9B411CD5
:1048D0009942D7D1259B1A460133BB427FF47CAF66
:1048E000DDF830E0239BFFF78DBA00BFA005002064
:1048F0008002002042F27C13C2F2000333F8110060
:1049000046EA000E23F811E0DFE742F27C1CC2F217
:10491000000C3CF8103033432CF81030C2E742F260
:104920007C10C2F2000030F81140344320F81140EE
:1049300085E74FF0010404FA00F042F27C14C2F261
:10494000000434F812C04CEA000024F8120091E789
:104950004622002304200F210292032203928DE8B5
:10496000030004930593044A03F0F8F820E60E20B0
:1049700010E60D200EE600BF7C2100202DE9F00F8F
:104980008346B0B04FEA800000EB0B0527900BF197
:1049900010000990279E40F2A054C2F20004DDF8F6
:1049A000249004EB060C04EB45078846DCF8045021
:1049B000A24607F1780154F82940B7F97C704FEA14
:1049C000880605FB07F904FB07F506EB08000AEB70
:1049D00040000695B24408F110050595DAF8045038
:1049E00040F2A05A0495059DC2F2000A5AF82550DB
:1049F000B0F97C400595049DDDF818A005FB0499ED
:104A0000059D0B9305FB04A53C1999FBF4F795FB59
:104A1000F4F43DB2CCF80450DDF824C040F2A055C7
:104A200027B2C2F2000545F82C701468914605EBD8
:104A30008B02C2F81241B0F87E20B1F906500BF19A
:104A4000010714B27830FBB2A5421B9304DA457A11
:104A5000007ACA804D720872279940F2A05A01EB81
:104A60000B07C2F2000A06EB08020AEB47030AEB47
:104A70004202B3F87C10B2F87C40B3F88250B2F82E
:104A8000820008F101076418401979B2A3F87C404C
:104A9000A3F8820000230E29A2F87C304FDC8F4E51
:104AA0004FF0010C06EB48031D8806EB4B0045FA5E
:104AB00001F5EA0707EA0C0600F1CF8301257A1910
:104AC00052B20E2A3BDCA6B11C886A1844FA02F4E2
:104AD00014F0010F08D00CFA02F204881443048089
:104AE0001C8824EA02021A8001357A1952B20E2A71
:104AF00025DC1E886A1C6D1846FA05F616F0010FB3
:104B000002EB010408D00CFA05F506882E43068056
:104B10001E8826EA05051D801D8845FA04F5ED0767
:104B200008D50CFA04F40588254305801D8825EA7C
:104B300004041C80551C7A1952B20E2AD9DDB8F132
:104B4000000F39DD012101FA08F601FA0BF563487F
:104B5000F443034633F8022B1FFA85FC324200EB84
:104B60004B05A4B28A4607EA01000AD0BBF1000F48
:104B700040F3878342EA0C0223F8022C224023F8F8
:104B8000022C02220121BA4216D0002800F03B83F9
:104B90001988534B31420AD0BBF1010F40F36883AF
:104BA00041EA0C0123F8021C214023F8021C1146A3
:104BB0000132BA4240F0278399F800C099F90130D8
:104BC0004FFA8CF29A42CDF850C000F3FE82454F66
:104BD00097F9016097F9034005960599161997F919
:104BE00000A097F9020004965718049902EB0A05F1
:104BF00002EB000C08956E1C7D1C0CF1010701F105
:104C0000010C0599CAEB04042894CAEB01042A9408
:104C1000C2EB021205922A9ACAEB0000C2EBC20252
:104C200006924FF60C12C0F2000292F9032029906E
:104C300010924FF60C12C0F2000292F90220CCEB57
:104C40000C1C11924FF60C12C0F2000292F90120D6
:104C5000089812924FF60C12C0F2000292F900204E
:104C6000289CCDF810C0DDF8A4C01392059AC0EBC3
:104C7000C001C6EB0616C4EBC400C7EB0717CCEBAC
:104C8000CC04DDF89CC05200760089007F00E3442C
:104C900017921696C5EB051599F903C00A91069966
:104CA0001997049A40F2A0576D00C2F200071895B8
:104CB00056008000A4008D00CAF1010A07EB4B0BDF
:104CC0001A962B902C942D95CDF8B8A0CDF854B011
:104CD000CDF8BC80CDF8189006E000BF7C21002004
:104CE0008021002008F90000DDF8188098F802B053
:104CF0004FFA8BF9E145CDF8109000F31A82DDF8F8
:104D0000B8A0089B109E129C139D119809EB0401FA
:104D100006EB090748440A9E0AEB0302DDF8AC8063
:104D200005EB0903DDF8B09006EB080A06EB09086D
:104D3000CDF830802D9C1A9DDDF8648006EB0409C7
:104D4000C2EB02127E1900EB0805DDF858800792CD
:104D5000189A98448C18CDF81480049ADDF81C80B9
:104D60005744DDF830A002EB4802079200EB0A0836
:104D7000179A0A98DDF810A01B1802EB0A00DDF85C
:104D8000A0A0089A894452441E92DDF8A4A0089A73
:104D9000002152441D92DDF8A8A0089A52441C92AA
:104DA00041F68C5A079AC2F2000A5244079242F224
:104DB000D452C2F2000202EB4707219740F69467F3
:104DC000C2F2000707EB4607229740F69467C2F24B
:104DD000000707EB450A40F6946702EB4808C2F269
:104DE0000007CDF88C8007EB440802EB490902EB81
:104DF0004303CDF890A0CDF89880DDF814A0DDF83D
:104E0000148040F6946241F68C57C2F20007C2F259
:104E10000002CDF8949002EB4A0908EB070ACDF89E
:104E20003CA040F2A052DDF89CA0C2F20002CDF8F6
:104E30008090F61902EB0A09ED19E4191F93C019C5
:104E40000B460C960D950E94079ACDF814900CE035
:104E5000DDF818C055709CF903C00BEB03056CB26C
:104E600001320231A445C0F26081577801337E1EC1
:104E7000F5B26CB2102CF0DDC71897F83C80C65C18
:104E8000177848EA0609967849EA07073743FE0784
:104E9000E3D5112CDCD11B9D0C9C5570DDF810A0C6
:104EA0005F1EDDF84080E65C574407EB0809002EE2
:104EB00045D10B9D002D00F0B881229E7518B5F9E3
:104EC0000240002C3BDD1E9E159DDDF8148006FB84
:104ED00004FA783509FB04F9B5F804C0D8F8046081
:104EE000079540F2A058099DC2F2000858F82550D5
:104EF0004FEACA1A0FFA8CF84FEAC91906FB08A63E
:104F000005FB08956444A4B2DDF81C800FFA84FC0C
:104F1000A8F8044096FBFCF695FBFCF5DDF830A004
:104F2000DDF81490DDF8248040F2A05C1124C2F278
:104F3000000C0AF80340C9F804604CF82850DDF86A
:104F400034A0DDF844901AF8036007EB0908002E3E
:104F500045D10B9D002D00F06B81249E7518B5F98D
:104F60000240002C3BDD1D9E159D08FB04F9DDF879
:104F7000148006FB04FA7835B5F804C0D8F804604C
:104F8000079540F2A058099DC2F2000858F8255034
:104F90004FEACA1A0FFA8CF84FEAC91906FB08A69D
:104FA00005FB08956444A4B2DDF81C800FFA84FC6C
:104FB000A8F8044096FBFCF695FBFCF5DDF834A060
:104FC000DDF81490DDF8248040F2A05C1124C2F2D8
:104FD000000C0AF80340C9F804604CF82850DDF8CA
:104FE00038A0DDF848901AF8036007EB0908002E96
:104FF00045D10B9D002D00F01581269E7518B5F941
:105000000240002C3BDD1C9E159D08FB04F9DDF8D9
:10501000148006FB04FA7835B5F804C0D8F80460AB
:10502000079540F2A058099DC2F2000858F8255093
:105030004FEACA1A0FFA8CF84FEAC91906FB08A6FC
:1050400005FB08956444A4B2DDF81C800FFA84FCCB
:10505000A8F8044096FBFCF695FBFCF5DDF838A0BB
:10506000DDF81490DDF8248040F2A05C1124C2F237
:10507000000C0AF80340C9F804604CF82850DDF829
:105080003CA01AF80360DDF84CA00AEB0709002EDB
:1050900040D10B9F002F00F0CE80209C6618B6F9FF
:1050A0000240002C40F3CC80089DDDF8148005FB05
:1050B00004FA159F09FB04F9D8F80460099D40F231
:1050C000A058B7F87CC0C2F2000858F825504FEA43
:1050D000CA1A0FFA8CF84FEAC91906FB08A605FB95
:1050E00008956444A4B2A7F87C400FFA84FC0F9F93
:1050F000DDF81480DDF8249040F2A05A96FBFCF60F
:1051000095FBFCF51124C2F2000AFC54C8F80460B7
:105110004AF82950069E0BEB030596F903C06CB2C2
:1051200001320231A445BFF6A0AEDDF8188098F92F
:1051300001301498179D471CFEB20A9F1E351C377C
:1051400072B2169C089914961795189E1A9D0A9784
:10515000199F1E34481C1E361E371E359A4216945F
:105160000890189619971A957FF7BEADDDF818903C
:10517000DDF8BC8099F800506CB29C4225DC454EAD
:105180001B9F013499F8022051B2614517DCC4EB32
:105190000413481C00EB43018B1913F8010B013277
:1051A000411E48B2404508BF03F8017CD2B208BF97
:1051B00099F903C051B26145EFDD99F9013001352C
:1051C000EDB26AB201349A42DCDD30B0BDE8F00FD6
:1051D000704740EA0C0023F8020C204023F8020C30
:1051E00033F8021B501C314208D093452CDD41EAB4
:1051F0000C0123F8021C214023F8021C421CBA4275
:1052000001463FF4D9AC33F8020B3042E8D08B456D
:10521000DFDCE2DA0AFA01F128880143298033F859
:10522000020CDAE7259C645EEBE6219C645E48E6AE
:10523000239C645E95E61F9D6C5E002C3FF734AFA7
:10524000069F97F903C008E6D5DA0AFA02F2298820
:105250000A432A8033F8021CCDE70CFA01F20488D5
:1052600042EA040505801C8824EA02021A8025E42B
:10527000BFF69AAC298842EA0100288033F8021C64
:1052800092E4BFF67BAC2A881143298033F8022CC4
:1052900074E400BF8C1D00202DE9F04F4FF0000C8E
:1052A00091B0DFF824B4DFF824A40290654605EB42
:1052B00085030BEB4300B0F97C207830002A00F026
:1052C000E18190F90810437A4C1E4E1CB4420494BC
:1052D000099600F3D7815BB203F1FF3CB046CDF8ED
:1052E0000CC0C4EBC40642F2D45C03EB8606C1EBEF
:1052F0000117C2F2000C7F00C8EB08100CEB460C43
:1053000041F68C5840F69466FC1803EB4000C2F25C
:105310000006C2F20008C1EBC102474406EB440894
:1053200006EB400442F2D456C3EBC37103F101090A
:1053300003EB8202C2F20006480006EB42024FEA8B
:1053400049015B000A9405900C910B920D93039C0C
:105350004C4500F38B8138194178C4EB0902059E56
:10536000059C013908EB06030CEB0400C2F3400274
:105370000E2907930890069256D88D4254D0029E6B
:10538000002E00F0868105EB85030BEB4304B4F996
:105390007E60B8F90020BAF87E00B24244DB06FB1A
:1053A00000F30A9C9B11B4F900609E423CDD079A11
:1053B0000C98145E9C4237DDA94202DA2E460D4657
:1053C00031460BEB8103D3F8122105F144000BEBBE
:1053D00080060E92B2789DF9384050B2B31C8442D8
:1053E00001DD8DF838205E789DF9392074B2A24233
:1053F00001DA8DF839609E789DF93A2070B28242C8
:1054000001DD8DF83A60DB789DF93B405EB2B44235
:1054100001DA8DF83B3028460EAA029BCDF804C075
:10542000FFF7ACFADDF804C0039904268C1C4C4548
:1054300000F31C81069A002A00F0D38038194378C3
:10544000591E0E2900F2C9808D4200F0C680029AD2
:10545000002A00F0EE8005EB85000BEB4003B3F96A
:105460007E30B8F90420BAF87E009A42C0F2B580C6
:1054700003FB00F30A9A9B11B2F90400984240F32F
:10548000AC806BE0B0F97E3038F90620BAF87E00C7
:105490009A4244DB03FB00F30A9A9B11905F984207
:1054A0003DDD07980C9A805E0690984237DDA94250
:1054B00002DA2B460D4619460BEB8100D0F812217B
:1054C00005F144030BEB83030E929A789DF938E0C3
:1054D00050B202338645C8BF8DF838205A789DF9FE
:1054E00039E050B28645B8BF8DF839209A789DF9D9
:1054F0003AE0DB7850B286459DF93B00C8BF8DF895
:105500003A205AB29042B8BF8DF83B3028460EAAD6
:10551000029BCDF804C0FFF731FADDF804C0023475
:1055200039194B780436591E0E2956D88D4254D05D
:10553000029800287DD005EB85030BEB4302B2F9FE
:105540007E3038F90620BAF87E009A4245DB03FB2C
:1055500000F30A9A9B11905F98423EDD0C9A0798DF
:10556000805E069002469A4237DDA94202DA2B4657
:105570000D4619460BEB8100D0F8122105F14403CA
:105580000BEB83030E929A789DF938E050B2023308
:10559000864501DD8DF838205A789DF939E050B202
:1055A000864501DA8DF839209A789DF93AE050B2B3
:1055B000864501DD8DF83A20DB789DF93B005AB233
:1055C000904201DA8DF83B3028460EAA029BCDF8B6
:1055D00004C0FFF7D3F9DDF804C0023404364C45AB
:1055E00044DC3B195878411E0E2998D88D4296D03C
:1055F000029A05EB85030BEB4300002A7FF442AFD0
:105600000CEB0602B0F97E3032F9022CBAF87E00BB
:10561000934284DC03FB00F30B9A9B11901930F941
:10562000022C9A427FF77BAF08980D9A805E069015
:105630003BE705EB85020BEB42030CEB060030F970
:10564000022CB3F97E30BAF87E009342C5DC03FB2E
:1056500000F30B9A9B11901930F9022C9A42BCDD91
:105660000D9A0898805E069002467CE70499099E90
:105670008C1C3C37B44204940CF1700C08F178088F
:105680007FF765AE01350E2D7FF711AE11B0BDE885
:10569000F08F05EB85030BEB4304B4F97E603CF916
:1056A000022CBAF87E0096423FF7BEAE06FB00F32E
:1056B0000B9C9B1134F9026C9E427FF7B5AE089AA1
:1056C0000D98145E76E600BFA0050020FC240020A3
:1056D00010B40B7890F900405AB29442C8BF0370DE
:1056E0004B7890F901405AB29442B8BF43708B781E
:1056F00090F902405AB29442C8BF8370CB7890F9B7
:1057000003105AB29142B8BFC37010BC704700BFBB
:1057100001FB01F100FB0010704700BF42B103FB29
:1057200001F102FB0011D21801EB620090FBF2F1D3
:10573000084670472DE9F04F9A4CDFF8808294F8C4
:105740009D30D8F800B042F6D8458BB04FF0FF310D
:105750000F229548C2F2000503935B45D4BF2B602E
:10576000C5F800B009F01BFF9048FF213C2209F06A
:1057700016FF039F002F6BD08D48D4F8802001685E
:105780008C4E4FF00009059104920296CE46404699
:10579000029CB4F92C30002B4ED041F66455C2F275
:1057A000000555F819700599049A07FA01F7BBF13D
:1057B000000F174440DD41F614360023C2F2000604
:1057C0004FF0FF3A1A464E44541C9900E2B2441876
:1057D000C91808EB4101B1F97C1003F1100581B142
:1057E00050F82510358B6468491B0DB205FB05F593
:1057F000B188641A21B201FB0155BD42BCBF9A4673
:105800002F4693451346DFDCBAF1FF3F14D041F237
:105810004476C2F2000616F90A20531C00F00482F6
:1058200043F27C31C2F2000151F82A50BD4203D943
:1058300041F82A7006F80AE0029B0EF1010C039E63
:105840005FFA8CFE0A33B645029309F102099FD133
:10585000BBF1000F40F37F8200208646CDF818B0E0
:1058600041F24474C2F20004275C0EF1010A79B2DD
:105870004A1C5FFA8AFE40D0FBB286004FEA8309D9
:1058800042F6D84C3518C2F2000C09EB0307464427
:1058900008EB45040CEB470100F11005766843F274
:1058A0007C3754F87CBFC2F2000758F8255008EB4B
:1058B0008002029657F820006668C1F87CB0059512
:1058C0002589D2F8124101F17C02029904900CEB77
:1058D000090ACAF80410566005991581049E41F61C
:1058E000645503F110070CEB8300C2F200054CF87D
:1058F0002710C0F8124145F82360069B7046734597
:10590000AEDC039C4FF0000E621ED7B2791C01EB97
:1059100081069B460292DFF89C907600F24607E0F3
:105920000AF1010C5FFA8CFAD345D64640F3B980F0
:1059300041F24475C2F2000515F90E00431CEFD187
:105940004FEA8E0707EB0E0308EB4304B4F97C2003
:10595000002AE5D003990029E2D0164D0023B5F9BD
:105960002C00A6F10A04C4F340051A4620B91249D6
:10597000B1F97C0000284CD00A200123B042CFD0DE
:1059800095B300EB0902B2F92C101A4621B90A4965
:10599000B1F98640002C3CD00A300133B04223D10B
:1059A000BEE700BFFC240020441700207C33002009
:1059B000C400002050160020D82C0020A005002094
:1059C000B5F92C1001331D46DAB241B942F6D84080
:1059D000C2F200000119B1F97C009A49C8B104F182
:1059E0000A006B1CB0429BD042F6D84100EB090282
:1059F000C2F2000100F10A040818B2F92C1009EBF8
:105A00000405DAB20029DBD1B0F97C008D49002809
:105A1000D6D107EB0E044744059708EB8E0706978F
:105A2000059F0EF110007F6804900597049F08EB16
:105A3000440454F87C5F58F827700795049767680A
:105A400024890897069F9D00E8180994D7F8124109
:105A50004F1903F1100501EB83030193079B01EB41
:105A60004000C367069400F17C0441F24470C2F226
:105A7000000000F80E20059A0AF1010C7A60049FDC
:105A8000DDF818E041F825700899099D5FFA8CFA55
:105A900061602581019CD345C4F812E1D6463FF7E9
:105AA00047AF694E03983378984200F2D3807578F7
:105AB000039CFF22AC423270634B00F2D480FF2083
:105AC0005870039DB37860499D4200F2D580F37809
:105AD000039FFF249F428C705B4900F2D680FF2514
